:06000000020EB202006BCB
:03000B0002006B85
:0300130002006B7D
:03001B0002006B75
:0300230002006B6D
:03002B0002006B65
:0300330002006B5D
:03003B0002006B55
:0300430002006B4D
:03004B0002006B45
:0300530002006B3D
:03005B0002006B35
:0300630002006B2D
:01006B003262
:0900800002006B0002006B00029B
:08008900006B0002006B000295
:08009100006B0002006B00028D
:08009900006B0002006B000285
:0800A100006B0002006B00027D
:0800A900006B0002006B000275
:0700B100006B0002006B0070
:0901000002006B0002006B00021A
:08010900006B0002006B000214
:08011100006B0002006B00020C
:08011900006B0002006B000204
:08012100006B0002006B0002FC
:08012900006B0002006B0002F4
:08013100006B0002006B0002EC
:08013900006B0002006B0002E4
:08014100006B0002006B0002DC
:08014900006B0002006B0002D4
:08015100006B0002006B0002CC
:08015900006B0002006B0002C4
:08016100006B0002006B0002BC
:08016900006B0002006B0002B4
:08017100006B0002006B0002AC
:07017900006B0002006B00A7
:0CE0000012010002FFFFFF40FEFF0800BD
:06E00C00000C01020401FA
:0AE012000A060002FFFFFF400100B4
:0EE01C0009022E0001010080320904000004F8
:0EE02A00FFFFFF0307050202000200070504C6
:0EE038000200020007058602000200070588AC
:04E0460002000200D2
:0CE04A0012010002FFFFFF40FEFF080073
:06E05600000C01020001B4
:0AE05C000A060002FFFFFF4001006A
:0EE066000902120001010080320904000000CE
:04E07400FFFFFF03A8
:01E0780005A2
:02E0790084E041
:02E07B008AE039
:02E07D00B2E00F
:02E07F00CCE0F3
:02E08100EEE0CF
:06E0840006030000090480
:0EE08A002803530052004C002D004C004C00A7
:0EE098004300200051005500490043004B009A
:0CE0A600530049004C0056004500520099
:0EE0B2001A03510053003100520020002000DC
:0AE0C0005600450052004200200007
:02E0CA003F0015
:0EE0CC00220343006F006D006D0061006E00C6
:0EE0DA00640020002600200053007400610046
:06E0E800740075007300D6
:02E0EE0012031B
:0EE0F0003200300031003000310031003000CD
:02E0FE003400EC
:08018000780BE84400600C79E3
:0C0188000190E100E4F0A3D8FCD9FAD00B
:0E01940083D082F6D8FDC082C083758200221F
:030EBA00020EC263
:030ED500020EBD4D
:050EBD001203C980FED4
:0501A20090E68BE4F083
:0901A70090E6A0E0FA20E1F82244
:0A01B00090E6B9E0FABA02028043BB
:0501BA00BA0502801AE5
:0501BF00BA0802804FA8
:0601C400BA0B0302023336
:0601CA00BA0C0302024F13
:0601D000BA0D03020275E6
:0301D60002027AA8
:0C01D9001201A290E6BAE0FA750C407525
:0A01E5000DE790E68BE0F50E8A822C
:0A01EF0012081BE582600302027E85
:0401F90075820022E9
:0C01FD0090E6BCE0FA6005BA020880033E
:0302090002048D5F
:03020C000204BE2B
:04020F0075820022D2
:0C0213001201A290E6BAE0FA751C4075DA
:0A021F001DE790E68BE0F51E8A82D1
:0A0229001205DEE582704EF5822218
:0E02330090E6BAE0FABA010A90E67AE0FA44E0
:0402410001F080390F
:0A02450090E67AE0FA54FEF0802FF4
:0E024F0090E6BAE0700890E6007402F080219C
:0E025D0090E6BAE0FABA010890E600740AF0E2
:02026B00801100
:08026D0090E6007412F0800914
:050275001208CD800419
:04027A007582002267
:04027E007582012262
:0A02820090E6B9E0FABA8102801F8D
:06028C00BA830302030E19
:05029200BA8402804265
:05029700BA8502805849
:06029C00BA8603020331E3
:0602A200BA870302035EAF
:0302A800020374DA
:0A02AB0090E6BAE0FA751C40751DDC
:0C02B500E790E6BEE0F51E8A8212051EEE
:0702C100E5827003F58222C3
:0E02C80090E68AE4F090E6BEE0FA90E68BF055
:0302D600020378A8
:0E02D90090E678E0FA53021890E740EAF090C1
:0D02E700E68AE4F090E68B7401F0020378E3
:0E02F40090E67AE0FA53020190E740EAF090BB
:0C030200E68AE4F090E68B7401F0806A5B
:0D030E0090E74074CBF090E7417443F0900D
:0E031B00E742742EF090E743E4F090E68AF09B
:0803290090E68B7404F080479C
:0A03310090E6BAE0FA750F4075106F
:0C033B00E790E6BEE0F5118A8212087D12
:07034700E5827003F582223C
:0E034E0090E68AE4F090E6BEE0FA90E68BF0CE
:02035C00801A05
:0C035E00A200E433FA90E740F090E68A39
:0A036A00E4F090E68B7401F08004CB
:04037400758200226C
:040378007582012267
:0B037C0090E6B8E0FABAC0030202826B
:0B03870090E6B8E0FABA40030201B0B3
:04039200758200224E
:080396003004FD120E5980F83D
:03039E00C2CF3299
:0403A1007509007565
:0303A5000AE175F5
:0903A8000805750B017582511264
:0803B100045990E100E0FA900C
:0C03B900E00CF090E056EAF074302A905E
:0403C500E0CAF02278
:0903C9001209D9C2AF1203A112FE
:0A03D2000767120B64D2EAD2AF12E3
:0503DC0004FA02039683
:0203E100AA82EE
:0503E30010990280FBEF
:0303E8008A9922CD
:0803EB00AA82AB83ACF07D0097
:0E03F3008D060DEE2AFEE43BFF8C008E828FFD
:0E0401008388F0120E96FEFF60178F82C002F5
:0E040F00C003C004C0051203E1D005D004D024
:05041D0003D00280D1B4
:0104220022B7
:03042300020812BA
:02042600222290
:02042800AA82A6
:0A042A00C002120426D002DAF72205
:0304340090FB50EA
:09043700A3E582458370F922223D
:04044000AA82AB835E
:0E044400C002C003120434D003D0021ABAFF63
:02045200011B8C
:05045400EA4B70EC22F0
:0B045900AA8290E109E4F090E10AE5BE
:0404640008F0751C0B
:0304680009751DF6
:09046B00E1751E028A82C0021232
:0B04740005DEE582D0027003F5822255
:04047F0085091C854A
:030483000A1D85CA
:050486000B1E8A82023A
:02048B00051E4C
:020EB200C2007C
:0C048D00C20075B6FFC2A0C2A275822892
:07049900120428D2A27A0030
:0E04A00020A3140A758232C002120428D00272
:0304AE00BAFF0092
:0604B10040ED75820022FF
:0604B700D2007582012253
:0104BD00221C
:0C04BE00C20075823212042820A30475CD
:0304CA008200228B
:0704CD0030A1047582012239
:0404D400758200220B
:0804D80090E6A0E04401F022CF
:0E04E000AA8274805AC423541FFB740F5A90D2
:0C04EE00E6834BF090E683E04420F0220F
:0E04FA0090E680E0440AF090012C120440903D
:0E050800E65D74FFF090E65F74FFF05391EF34
:0805160090E680E054F7F022AA
:0A051E00AA82E51E70047582012216
:0E05280090E678E0FB20E6F890E6787480F02C
:0A053600EA2AFA90E67974014AF00F
:0E05400090E678E0FA30E0F890E678E0FA30E5
:05054E00E2030205D3E9
:0B05530090E678E0FA20E1030205D3F7
:0C055E007401B51E0890E678E0FA442015
:01056A00F0A0
:09056B0090E679E0F51FAA1CAB33
:030574001DAC1E9D
:040577001CEC6030E8
:0E057B0090E678E0FD30E0F890E678E0FD20B4
:0D058900E248BC010890E678E0FD4420F057
:0E05960090E679E0FD8A828B83F0A3AA82AB07
:0705A400838A1C8B1D80CC33
:0E05AB0090E678E0FA30E0F890E678E0FA208A
:0C05B900E21890E678E04440F0AA1CAB89
:0C05C5001D90E679E08A828B83F075823D
:0205D100012205
:0B05D30090E678E04440F075820022C2
:0205DE00AA82EF
:0E05E00090E678E0FB20E6F890E6787480F074
:0705EE00EA2AFA90E679F019
:0E05F50090E678E0FA30E0F890E678E0FA2040
:0C060300E24790E678E0FA30E13FAA1CE4
:04060F00AB1DAC1E55
:0E061300EC602B8A828B83E0FDA3AA82AB836E
:0606210090E679EDF01CEB
:0E06270090E678E0FD30E0F890E678E0FD2007
:0C063500E21590E678E0FD20E1D4800B97
:0B06410090E678E04440F07582012252
:0B064C0090E678E04440F07582002248
:05065700AA82BA0300B5
:07065C0040077463B50200C2
:02066300500144
:010665002272
:09066600740F5AFBBB030280076C
:07066F00740F5AFBBB0B45A1
:0A067600A2AF9201C2AFEA2400F522
:0C06800082E43400F5837402F07B007407
:0C068C00012AFCE43BFDEC2400F582EDAB
:0A0698003400F583E51DFCF0740248
:0C06A2002AFAE43BFBEA2400F582EB346A
:0A06AE0000F583AA1C7B00EAF0A20D
:0306B8000192AFFD
:0106BB00221C
:0706BC00AA82747CB5020064
:0306C300500122C1
:0606C600EA54036001226A
:0A06CC00A2AF9202C2AFEA2400F5CB
:0C06D60082E43401F5837402F07B0074B0
:0C06E200012AFCE43BFDEC2400F582ED55
:0A06EE003401F583E51DF074022AC3
:0B06F800FAE43BFBEA2400F582EB343F
:0807030001F583AA1CEAF0A233
:04070B000292AF2285
:05070F00AA82BA80007F
:07071400400774B4B50200B8
:02071B0050018B
:01071D0022B9
:06071E00EA540360012211
:0A072400A2AF9203C2AFEA2480F5F1
:0C072E0082E43400F5837402F07B007458
:0C073A00012AFCE43BFDEC2480F582ED7C
:0A0746003400F583E51DF074022A6B
:0B075000FAE43BFBEA2480F582EB3466
:08075B0000F583AA1CEAF0A2DC
:040763000392AF222C
:08076700C2E8C2EA751C00752E
:06076F001D01758243121A
:040775000657751C92
:0307790080751D6B
:0C077C00007582531206570090E650E40E
:0E078800F00090E652E4F00090E654E4F00039
:0E07960090E656E4F00090E65174FFF00090FB
:0E07A400E65374FFF00090E65574FFF00090ED
:0E07B200E65774FFF00090E658E4F090E65928
:0E07C00074FFF090E65AE4F090E65B74FFF0F0
:0E07CE0090E65CE4F090E65D74FFF090E65E6D
:0E07DC00E4F090E65F74FFF00090E660E4F059
:0D07EA000090E66174FFF090E662E4F0908C
:0E07F700E66374FFF090E665E4F090E6687447
:0D0805000BF05391EF5391BFD2E8D2EA22DD
:0408120075B6FF2296
:05081600D283C2832221
:0A081B00AA82E50E605474FB250E5E
:0E082500404E75B6FFD2808AB1D281120816FD
:040833007A007B00CC
:0C083700AC0E7D00C3EA9CEB64808DF0E9
:0C08430063F08095F0501FEA250CF58250
:0C084F00EB350DF583E0F5B1C002C003ED
:0E085B00120816D003D0020ABA00D10B80CECC
:0C086900C281120816C28075B60080041F
:040875007582002266
:04087900850E822244
:0E087D00AA8275B6FFC2808AB1D28112081617
:07088B0075B6007A007B0046
:0C089200AC117D00C3EA9CEB64808DF08B
:0E089E0063F08095F0501FC002C003120816D0
:0B08AC00D003D002EA250FF582EB35E7
:0C08B70010F583E5B1F00ABA00D10B8007
:0108C300CE66
:0908C400C281120816851182227E
:0E08CD0090E6107401F00090E6117401F00046
:0E08DB0090E61274A2F00090E6047480F00023
:0E08E90090E6047482F00090E604E4F00090C3
:0E08F700E6187401F00090E6187411F00090FD
:0E090500E6497482F00090E6497482F000909A
:0E091300E61374A2F00090E6047480F00090E9
:0D092100E6047484F00090E604E4F0009019
:0E092E00E6197401F00090E6197411F00090C3
:0E093C00E6197401F00090E6497484F0009012
:0E094A00E6497484F00090E61474E2F0009028
:0E095800E6047480F00090E6047486F00090CF
:0D096600E604E4F00090E61A7401F0009041
:0E097300E61A7409F00090E6247402F0009079
:0D098100E625E4F00090E61574E2F0009029
:0E098E00E6047480F00090E6047488F0009097
:0D099C00E604E4F00090E61B7401F000900A
:0E09A900E61B7409F00090E6267402F0009040
:0E09B700E627E4F00090E609E4F00090E60286
:0E09C500E4F00090E603E4F00043AF01009080
:0609D300E68AE4F00022B8
:0E09D90090E6007412F0758E0090E60174E353
:0E09E700F075800075B20B75A00475B43575FF
:0E09F500B10075B6FF1208CD759850438920E9
:0A0A0300758DB2D28ED29902042341
:010A0D0022C6
:060EB40075120075130029
:0A0A0E0090E680E0FA30E719751455
:030A180000751551
:030A1B00E075166D
:030A1E0012751737
:030A2100E0751865
:030A24001C751925
:030A2700E0751A5D
:030A2A0066751BD3
:020A2D00E022C5
:040A2F0075144A757B
:030A330015E07556
:030A3600165C75D6
:030A390017E0754E
:030A3C00186675C4
:030A3F0019E07546
:030A42001A1C7506
:030A45001BE02291
:090A48005391EF75A100D20432B4
:0C0A5100C021C0E0C0F0C082C083C00221
:0E0A5D00C003C004C005C006C007C000C00131
:0E0A6B00C0D075D0005391EF75A100120A0E95
:0E0A7900D0D0D001D000D007D006D005D004D8
:0D0A8700D003D002D083D082D0F0D0E0D0D8
:020A940021320D
:0C0A9600C021C0E0C0F0C082C083C002DC
:0E0AA200C003C004C005C006C007C000C001EC
:0E0AB000C0D075D0005391EF75A100120A0E50
:0E0ABE00D0D0D001D000D007D006D005D00493
:0D0ACC00D003D002D083D082D0F0D0E0D093
:020AD9002132C8
:0E0ADB00C0E0C0F0C082C083C002C003C004EF
:0C0AE900C005C0D075D0003000527A006B
:0E0AF5007BF48B9A7A007BF48A9B90E694E067
:0E0B0300FB7A0090E695E0FC7D00EC2AFAED0E
:0E0B11003BFBC3E49A74808BF063F08095F098
:060B1F0050247C007D0063
:0E0B2500C3EC9AED64808BF063F08095F05085
:0E0B33001190E67BE0F5B1D2A0C2A00CBC0090
:040B4100E30D80E060
:0E0B450090E6957480F05391EF75A100D0D02A
:0E0B5300D005D004D003D002D083D082D0F0E1
:030B6100D0E032AF
:050B6400120A0E751CD1
:030B690048751DAF
:080B6C000A7582001206BC7537
:030B74001C51759C
:060B77001D0A7582101238
:040B7D0006BC751C21
:030B810096751D49
:080B84000A7582141206BC750B
:030B8C001CDB75FA
:060B8F001D0A75823412FC
:0E0B950006BC90E65C7431F090E65E7420F0D1
:010BA300222F
:0A0BA400AA8253027F7408B5020014
:060BAE00500475820022D4
:070BB400BA01047582012261
:080BBB00530201E4BA00010439
:030BC300F5822296
:0E0BC600AA82BA010C90E6A1E0FB7C008B82B3
:030BD4008C8322ED
:0E0BD700BA810C90E6A2E0FB7C008B828C833E
:010BE50022ED
:0E0BE60053027FEA700C90E6A0E0FB7C008BCF
:040BF400828C83224A
:0E0BF80090E6A3E0FB7C00EAC313FA7D00EA5E
:090C06002BFBED3C8B82F58322EF
:0D0C0F0090E6B8E0FA53021FBA000280051B
:050C1C00BA0245801240
:0A0C210090E6BAE0FABA010280057D
:050C2B00BA0202800383
:030C30001204D8D3
:0E0C330090E6BAE0FA702A90E6BCE0F5821274
:0D0C41000BA4E582601A90E6BCE0F582127B
:0E0C4E000BC6AA82AB83E0FC4304018A828BB2
:050C5C0083ECF08003B1
:030C61001204D8A2
:030C64000204D8AF
:0D0C670090E6B8E0FA53021FBA00028005C3
:050C7400BA0247800EEA
:0B0C790090E6BAE0FABA01030204D8CA
:030C84000204D88F
:0D0C870090E6BAE0702E90E6BCE0F5821217
:0D0C94000BA4E582602190E6BCE0F5821221
:0E0CA1000BC6AA82AB83E0FC5304FE8A828B52
:0C0CAF0083ECF090E6BCE0F5820204E06B
:030CBB000204D858
:030CBE000204D855
:0D0CC10090E6B8E0FA53021FBA0002800A64
:050CCE00BA0102801BC9
:050CD300BA025F802A57
:0E0CD80090E7407401F090E741E4F090E68A66
:080CE600F090E68B7402F0228D
:0E0CEE0090E740E4F090E741F090E68AF09045
:060CFC00E68B7402F022F9
:0E0D020090E6BCE0F582120BA4E5826023901F
:0E0D1000E6BCE0F582120BC6E0FA5302019039
:0E0D1E00E740EAF090E741E4F090E68AF090BA
:060D2C00E68B7402F022C8
:030D32000204D8E0
:030D35000204D8DD
:0A0D380090E6BBE0FABA0102801752
:050D4200BA020280303E
:050D4700BA030280491F
:050D4C00BA0602801749
:050D5100BA070280302A
:030D5600020DC8C3
:0A0D5900AA14AB1590E6B3EBF0907E
:050D6300E6B4EAF022F5
:0A0D6800AA16AB1790E6B3EBF0906B
:050D7200E6B4EAF022E6
:0A0D7700AA18AB1990E6B3EBF09058
:050D8100E6B4EAF022D7
:0A0D8600AA1AAB1B90E6B3EBF09045
:050D9000E6B4EAF022C8
:0E0D950090E6BAE0FA90E078E0FBEAB50300E1
:050DA30040030204D82A
:0C0DA80090E6BAE075F002A42479F58210
:0B0DB40074E035F0F583E0FAA3E09056
:090DBF00E6B3F090E6B4EAF0227C
:030DC8000204D84A
:0C0DCB0090E6B9E0FA6036BA0602802E0D
:050DD700BA08028005CE
:050DDC00BA0A2C801290
:0C0DE10090E740E512F090E68AE4F09004
:060DED00E68B7401F02208
:0C0DF30090E740E513F090E68AE4F090F1
:060DFF00E68B7401F022F6
:030E0500020D38A3
:030E0800020CC118
:030E0B000204D806
:0A0E0E0090E6B9E0FABA010280276D
:050E1800BA0302802571
:050E1D00BA050280236C
:050E2200BA0702801E6A
:050E2700BA090280057C
:050E2C00BA0B1680075F
:070E310090E6BAE0F5122281
:070E380090E6BAE0F5132279
:030E3F00020C673B
:030E4200020C0F90
:030E45000204D8CC
:0E0E480090E6B8E0FA530280BA8003020DCBA8
:030E5600020E0E7B
:0C0E5900C20490E6B8E0FA530260BA0050
:030E650002801EEA
:050E6800BA2002800821
:050E6D00BA40028008FC
:030E7200BA60164D
:050E75001204D88014F6
:0C0E7A0012037CE582700D1204D8800881
:050E8600120E4880037C
:030E8B001204D876
:080E8E0090E6A0E04480F02290
:060ECF00E478FFF6D8FDF7
:030EC20075812116
:0A0EC500120180E5826003020EBDF9
:0E0E960020F71430F6148883A88220F507E6B2
:060EA400A8837583002203
:030EAA00E280F7EC
:030EAD00E49322A9
:020EB000E0223E
:00000001FF
